:100000000C942C010C948D050C9462050C9437050E
:100010000C940C050C94E1040C94B6040C948B0421
:100020000C9460040C945D010C945D010C945D01D2
:100030000C945D010C945D010C945D010C945D01C8
:100040000C945D010C945D010C945D010C945D01B8
:100050000C945D010C945D010C945D010C941604EC
:100060000C945D010C94E2050C94B8050C945D01B0
:100070000C945D010C945D010C945D010C945D0188
:100080000C945D010C945D010C945D010C945D0178
:100090000C945D010C945D010C945D010C945D0168
:1000A0000C945D010C945D010C945D010C945D0158
:1000B0000C945D010C945D010C945D010C945D0148
:1000C0000C945D010C945D010C945D010C945D0138
:1000D0000C945D010C945D010C945D010C945D0128
:1000E0000C945D010C94BF010C943E020C94DB0156
:1000F0000C94BB010C94C5010C9461020C94D301C7
:100100000C948F010C94E1010C94D7010C94CD0157
:100110000C94E5010C94AE010C94C9010C94F90205
:100120000C9411020C9462080C94B5010C94A60175
:100130000C94AA010C94D2030C9494010C944D02DB
:100140000C946F020C94A7020C9410020C94B20150
:1001500000002100240027002A002D003000330079
:1001600001010000040107010A010000220025002E
:1001700028002B002E003100340002010000050190
:1001800008010B0105050505070508080808020216
:1001900002020A0A08080404040401010101010121
:1001A00001010303030303030303040707070C0C04
:1001B0000C0C0C0C0C0C02020202060606060606CB
:1001C00006060B0B0B0B0B0B0B0B01021020200870
:1001D00008102040102040800201020108040201A2
:1001E0000102040810204080804020100804020111
:1001F000800402018040201008040201080402016A
:1002000001020408102040800102040810204080F0
:1002100000000A0B02090C0D0E0807030401000080
:1002200000000000000000000000000000000000CE
:10023000000000000000000000000000121110008B
:1002400000000000000000000000000000000000AE
:10025000000000000000620811241FBECFEFD1E2B1
:10026000DEBFCDBF00E00CBF12E0A0E0B2E0E0E5F1
:10027000F7E100E00BBF02C007900D92AE32B1076C
:10028000D9F722E0AEE2B2E001C01D92A23FB20770
:10029000E1F711E0CCE2D1E000E006C021970109CE
:1002A000802FFE010E945B0ACB32D10780E0080755
:1002B000A9F70E9418060C94A60B0C940000282F96
:1002C00030E0F901E05FFD4F9491F901E653FE4FF4
:1002D00044912C573E4FF9012491222309F435C053
:1002E000992311F191509231F8F4E92FF0E0882729
:1002F000E358FE4F8F4F0C945B0AAE01B2018F01A1
:10030000A601AA019401B501BB01BF01C501C90144
:10031000CD01D301D7019401DB01E101E501809119
:1003200080008F7780938000E22FF0E0EE0FFF1FB8
:10033000E659FE4FA591B4918FB7F894EC916111F5
:1003400048C040954E234C938FBF08958091800004
:100350008F7DE8CF80918000877FE4CF84B58F7751
:1003600084BDE2CF84B58F7DFBCF8091B0008F77C5
:100370008093B000D9CF8091B0008F7DF9CF80916C
:1003800090008F7780939000CFCF809190008F7DE9
:10039000F9CF80919000877FF5CF8091A0008F7773
:1003A0008093A000C1CF8091A0008F7DF9CF809174
:1003B000A000877FF5CF809120018F778093200167
:1003C000B3CF809120018F7DF9CF80912001877F6D
:1003D000F5CF4E2BB8CF3FB7F89480914D02909156
:1003E0004E02A0914F02B091500226B5A89B05C0C5
:1003F0002F3F19F00196A11DB11D3FBFBA2FA92FA4
:10040000982F8827BC01CD01620F711D811D911DA0
:1004100042E0660F771F881F991F4A95D1F708950C
:100420000895AF92BF92CF92DF92EF92FF920F9317
:100430001F93CF93DF936C017B018B01040F151F7A
:10044000EB015E01AE18BF08C017D10759F06991E2
:10045000D601ED91FC910190F081E02DC601199536
:10046000892B79F7C501DF91CF911F910F91FF90F3
:10047000EF90DF90CF90BF90AF900895FC01538D27
:10048000448D252F30E0842F90E0821B930B54176E
:1004900010F0CF96089501970895FC01918D828DFB
:1004A000981761F0A28DAE0FBF2FB11D5D968C9194
:1004B000928D9F5F9F73928F90E008958FEF9FEFD3
:1004C0000895FC01918D828D981731F0828DE80F8F
:1004D000F11D858D90E008958FEF9FEF0895FC0149
:1004E000918D228D892F90E0805C9F4F821B910916
:1004F0008F739927089581E592E00E946F0221E0B1
:10050000892B09F420E0822F0895FC01A48DA80F07
:10051000B92FB11DA35ABF4F2C91848D90E0019645
:100520008F739927848FA689B7892C93A089B18965
:100530008C91837080648C93938D848D981306C006
:100540000288F389E02D80818F7D80830895EF926A
:10055000FF920F931F93CF93DF93EC0181E0888F7D
:100560009B8D8C8D98131AC0E889F989808185FF4D
:1005700015C09FB7F894EE89FF896083E889F989EF
:1005800080818370806480839FBF81E090E0DF91F1
:10059000CF911F910F91FF90EF900895F62E0B8D44
:1005A00010E00F5F1F4F0F731127E02E8C8D8E11FF
:1005B0000CC00FB607FCFACFE889F989808185FF66
:1005C000F5CFCE010E948502F1CFEB8DEC0FFD2F10
:1005D000F11DE35AFF4FF0829FB7F8940B8FEA8921
:1005E000FB8980818062CFCF682F81E592E00C94F7
:1005F000A702CF93DF93EC01888D8823B9F0AA89F5
:10060000BB89E889F9898C9185FD03C0808186FDCD
:100610000DC00FB607FCF7CF8C9185FFF2CF80811C
:1006200085FFEDCFCE010E948502E9CFDF91CF910A
:10063000089580E090E0892B29F00E947B028111CF
:100640000E94000080E090E0892B49F080E090E07B
:10065000892B29F00E94000081110E94000080E097
:1006600090E0892B49F080E090E0892B29F00E94EE
:10067000000081110E94000080E090E0892B49F089
:1006800080E090E0892B29F00E94000081110C94F9
:1006900000000895CF93DF93EC018C81662391F0E5
:1006A00061E00E945F0183EF9CE00197F1F760E059
:1006B0008C810E945F018BE193E00197F1F7DF915C
:1006C000CF91089561E00E945F018BE995E0019769
:1006D000F1F760E08C810E945F0183E79AE0EDCF43
:1006E0008F929F92AF92BF92CF92DF92FF920F9321
:1006F0001F93CF93DF938C01D62EF72E61E0FC0180
:1007000084810E945F0183E398E10197F1F760E043
:10071000F80184810E945F018BE49AE00197F1F770
:10072000CD2DDF2D4E01F4E08F0E911CF12CA99000
:10073000FA0C97E0C92ED12CB12CB5010C2C02C0BB
:10074000759567950A94E2F76170C8010E944A03A3
:1007500081E0C81AD10888F78C169D0641F787E01A
:10076000C82ED12CCF2DD0E0BE010C2C02C0759527
:1007700067950A94E2F76170C8010E944A03F1E0AC
:10078000CF1AD10888F760E0C801DF91CF911F919F
:100790000F91FF90DF90CF90BF90AF909F908F9080
:1007A0000C944A03EF92FF920F931F93CF93DF9322
:1007B00000D000D000D01F921F92CDB7DEB77C01D1
:1007C0000D831E8349875A878D819E819A838983F1
:1007D00089859A8534E0880F991F3A95E1F7282B8F
:1007E0002B83643608F183E68C83BE016F5F7F4FF5
:1007F000C7010E947003BE016F5F7F4FC7010E9457
:100800007003BE016F5F7F4FC7010E9470032B967C
:100810000FB6F894DEBF0FBECDBFDF91CF911F9111
:100820000F91FF90EF9008956C83DFCF1F920F928E
:100830000FB60F9211242F933F938F939F93AF93F3
:10084000BF938091490290914A02A0914B02B091CE
:100850004C023091480223E0230F2D3758F50196C2
:10086000A11DB11D209348028093490290934A0232
:10087000A0934B02B0934C0280914D0290914E0296
:10088000A0914F02B09150020196A11DB11D80931D
:100890004D0290934E02A0934F02B0935002BF912D
:1008A000AF919F918F913F912F910F900FBE0F901D
:1008B0001F90189526E8230F0296A11DB11DD2CFD7
:1008C0001F920F920FB60F9211240BB60F922F9317
:1008D0003F934F935F936F937F938F939F93AF93C8
:1008E000BF93EF93FF93E0910E02F0910F021995E1
:1008F000FF91EF91BF91AF919F918F917F916F91F8
:100900005F914F913F912F910F900BBE0F900FBEB3
:100910000F901F9018951F920F920FB60F921124EF
:100920000BB60F922F933F934F935F936F937F93E9
:100930008F939F93AF93BF93EF93FF93E0910C023C
:10094000F0910D021995FF91EF91BF91AF919F9199
:100950008F917F916F915F914F913F912F910F9068
:100960000BBE0F900FBE0F901F9018951F920F9205
:100970000FB60F9211240BB60F922F933F934F9304
:100980005F936F937F938F939F93AF93BF93EF93F7
:10099000FF93E0910202F09103021995FF91EF910C
:1009A000BF91AF919F918F917F916F915F914F9187
:1009B0003F912F910F900BBE0F900FBE0F901F9085
:1009C00018951F920F920FB60F9211240BB60F922B
:1009D0002F933F934F935F936F937F938F939F9347
:1009E000AF93BF93EF93FF93E0910002F091010268
:1009F0001995FF91EF91BF91AF919F918F917F9149
:100A00006F915F914F913F912F910F900BBE0F907F
:100A10000FBE0F901F9018951F920F920FB60F9256
:100A200011240BB60F922F933F934F935F936F93C5
:100A30007F938F939F93AF93BF93EF93FF93E09137
:100A40000A02F0910B021995FF91EF91BF91AF91BE
:100A50009F918F917F916F915F914F913F912F91D6
:100A60000F900BBE0F900FBE0F901F9018951F9206
:100A70000F920FB60F9211240BB60F922F933F9344
:100A80004F935F936F937F938F939F93AF93BF9396
:100A9000EF93FF93E0910802F09109021995FF91FD
:100AA000EF91BF91AF919F918F917F916F915F91E6
:100AB0004F913F912F910F900BBE0F900FBE0F9053
:100AC0001F9018951F920F920FB60F9211240BB61C
:100AD0000F922F933F934F935F936F937F938F93D7
:100AE0009F93AF93BF93EF93FF93E0910602F09132
:100AF00007021995FF91EF91BF91AF919F918F914F
:100B00007F916F915F914F913F912F910F900BBE0D
:100B10000F900FBE0F901F9018951F920F920FB657
:100B20000F9211240BB60F922F933F934F935F9325
:100B30006F937F938F939F93AF93BF93EF93FF93A5
:100B4000E0910402F09105021995FF91EF91BF9198
:100B5000AF919F918F917F916F915F914F913F9155
:100B60002F910F900BBE0F900FBE0F901F901895F6
:100B70001F920F920FB60F9211240BB60F922F9364
:100B80003F934F935F936F937F938F939F93AF9315
:100B9000BF93EF93FF9381E592E00E948502FF915E
:100BA000EF91BF91AF919F918F917F916F915F91E5
:100BB0004F913F912F910F900BBE0F900FBE0F9052
:100BC0001F9018951F920F920FB60F9211240BB61B
:100BD0000F922F938F939F93EF93FF93E091610276
:100BE000F09162028081E0916702F091680282FDDB
:100BF0001DC0908180916A028F5F8F7320916B027C
:100C0000821741F0E0916A02F0E0EF5AFD4F958FB4
:100C100080936A02FF91EF919F918F912F910F9096
:100C20000BBE0F900FBE0F901F9018958081F2CFD2
:100C3000CF93DF9300D000D01F92CDB7DEB778946A
:100C400084B5826084BD84B5816084BD85B58260D1
:100C500085BD85B5816085BD80916E008160809382
:100C60006E001092810080918100826080938100EB
:100C700080918100816080938100809180008160FB
:100C8000809380008091B10084608093B100809156
:100C9000B00081608093B000809191008260809369
:100CA00091008091910081608093910080919000EB
:100CB0008160809390008091A10082608093A10068
:100CC0008091A10081608093A1008091A00081604B
:100CD0008093A00080912101826080932101809106
:100CE00021018160809321018091200181608093A6
:100CF000200180917A00846080937A0080917A004C
:100D0000826080937A0080917A00816080937A007B
:100D100080917A00806880937A001092C100E091FF
:100D20006102F091620212E01083E0915D02F091A5
:100D30005E021082E0915F02F091600280E18083A8
:100D400010926902E0916502F091660286E080836C
:100D5000E0916302F0916402808180618083E09180
:100D60006302F0916402808188608083E091630275
:100D7000F0916402808180688083E0916302F09149
:100D8000640280818F7D808385E090E00E94810AEB
:100D90007C018CE292E0F7019183808314838CEDD7
:100DA00095E793838283ECECF1E02491E6E8F1E0AF
:100DB0008491882399F090E0880F991FFC01E05BF3
:100DC000FE4FA591B491FC01E659FE4F8591949197
:100DD0008FB7F894EC91E22BEC938FBF60E0F701B2
:100DE00084810E945F01F0923402E09233029BE31F
:100DF000E92E92E0F92E2224239422E0C22ED12C57
:100E000034E1332E81E592E00E946F02892BD1F10B
:100E10000E94EB014B015C0183E0482E512C612CB8
:100E2000712C0E94EB01681979098A099B09683EB7
:100E3000734081059105A8F3F1E04F1A510861084C
:100E4000710828EE820E23E0921EA11CB11C4114F1
:100E500051046104710429F781E592E00E946F0258
:100E6000181619067CF681E592E00E944D02E09189
:100E7000470291E09E0F90934702F0E0E55CFD4F42
:100E80008083C0CF80914702E82FF0E0E55CFD4F02
:100E900010828823A9F0F70101900020E9F781E092
:100EA00090E0E054F24009F06EC010913B02812FB7
:100EB0008F7D853409F061C010923A021092390298
:100EC000F7012CE011922A95E9F7109247028091E0
:100ED0003A02882309F44EC080913902E4E68E9FDD
:100EE000C0011124092E000CAA0BBB0B4091350246
:100EF000509136026091370270913802840F951F2D
:100F0000A61FB71F2FB7F8944091490250914A028B
:100F100060914B0270914C022FBF481759076A0726
:100F20007B0708F0CCC0A0913302B09134026091ED
:100F30003202809130023091310290912E02509114
:100F40002F0212962C91129713964C911397022F01
:100F500029834A83492F9D835E83282F8B833C837B
:100F60006F83ED91FC9111970190F081E02D1A8132
:100F7000CD0119950E94190345CF80913A0288232B
:100F800029F082E090E00E94F4029ACF80913D0225
:100F900080933202843618F085E090E0F4CF2091FF
:100FA0003E02022E000C330B8EE1A82F880FBB0BE4
:100FB0000E94630A0E94A6092DEC3CEC4CEC51E423
:100FC0000E94FC082B013C0120E030E0A9010E94B6
:100FD000320A20E030E040E05FE387FD3FC0C3011C
:100FE000B2010E9490080E946E09609339028091BC
:100FF0003C028230C1F18330E9F1813009F03FC019
:1010000010922F0210922E02163509F447C0D4F523
:10101000103509F44BC0133509F445C01234B9F545
:1010200083E090E0909331028093300220923A0264
:101030002FB7F8948091490290914A02A0914B02F7
:10104000B0914C022FBF8093350290933602A0934B
:101050003702B093380290E080E095CFC301B2012F
:101060000E948F08C0CFE1E0F0E0F0932F02E09300
:101070002E02CACFD0922F02C0922E02C5CF84E09A
:1010800090E081CF103791F02CF4123649F283E0D2
:1010900090E079CF133739F01637C9F7D092310283
:1010A000C0923002C3CF81E090E0BCCF83E090E0FB
:1010B000909331028093300230923902B7CF109270
:1010C0003A0258CFE1E5F2E01382128288EE93E013
:1010D000A0E0B0E084839583A683B7838AE192E0A1
:1010E0009183808385EC90E09587848784EC90E001
:1010F0009787868780EC90E0918B808B81EC90E0E5
:10110000938B828B82EC90E0958B848B86EC90E0C5
:10111000978B868B118E128E138E148E08955058D5
:10112000BB27AA270E94A7080C94F8090E94EA0985
:1011300038F00E94F10920F039F49F3F19F426F4A9
:101140000C94E7090EF4E095E7FB0C94E109E92F14
:101150000E94090A58F3BA176207730784079507B4
:1011600020F079F4A6F50C942B0A0EF4E0950B2EE2
:10117000BA2FA02D0B01B90190010C01CA01A001E9
:101180001124FF27591B99F0593F50F4503E68F144
:101190001A16F040A22F232F342F4427585FF3CF85
:1011A000469537952795A795F0405395C9F77EF456
:1011B0001F16BA0B620B730B840BBAF09150A1F09F
:1011C000FF0FBB1F661F771F881FC2F70EC0BA0F25
:1011D000621F731F841F48F4879577956795B795AD
:1011E000F7959E3F08F0B0CF9395880F08F09927A8
:1011F000EE0F9795879508950E9410090C94F809B1
:101200000E94F10958F00E94EA0940F029F45F3F7A
:1012100029F00C94E10951110C942C0A0C94E70963
:101220000E94090A68F39923B1F3552391F3951BA2
:10123000550BBB27AA2762177307840738F09F5FF7
:101240005F4F220F331F441FAA1FA9F335D00E2E64
:101250003AF0E0E832D091505040E695001CCAF7D1
:101260002BD0FE2F29D0660F771F881FBB1F261794
:1012700037074807AB07B0E809F0BB0B802DBF016B
:10128000FF2793585F4F3AF09E3F510578F00C943A
:10129000E1090C942C0A5F3FE4F3983ED4F3869561
:1012A00077956795B795F7959F5FC9F7880F911D5B
:1012B0009695879597F90895E1E0660F771F881F47
:1012C000BB1F621773078407BA0720F0621B730BFA
:1012D000840BBA0BEE1F88F7E09508950E947509FC
:1012E0006894B1110C942C0A08950E94110A88F098
:1012F0009F5798F0B92F9927B751B0F0E1F0660FDA
:10130000771F881F991F1AF0BA95C9F714C0B1301A
:1013100091F00E942B0AB1E008950C942B0A672FDC
:10132000782F8827B85F39F0B93FCCF38695779549
:101330006795B395D9F73EF4909580957095619532
:101340007F4F8F4F9F4F0895E89409C097FB3EF45D
:1013500090958095709561957F4F8F4F9F4F992302
:10136000A9F0F92F96E9BB279395F6958795779580
:101370006795B795F111F8CFFAF4BB0F11F460FF40
:101380001BC06F5F7F4F8F4F9F4F16C0882311F098
:1013900096E911C0772321F09EE8872F762F05C0AC
:1013A000662371F096E8862F70E060E02AF09A9547
:1013B000660F771F881FDAF7880F9695879597F93C
:1013C000089597F99F6780E870E060E008959FEFC7
:1013D00080EC089500240A941616170618060906CC
:1013E000089500240A94121613061406050608959B
:1013F000092E0394000C11F4882352F0BB0F40F423
:10140000BF2B11F460FF04C06F5F7F4F8F4F9F4F62
:10141000089557FD9058440F551F59F05F3F71F0E4
:101420004795880F97FB991F61F09F3F79F087954B
:101430000895121613061406551FF2CF4695F1DFD4
:1014400008C0161617061806991FF1CF8695710564
:10145000610508940895E894BB2766277727CB0198
:1014600097F908950E94370A08F48FEF0895990FAD
:101470000008550FAA0BE0E8FEEF16161706E8075E
:10148000F907C0F012161306E407F50798F0621B7F
:10149000730B840B950B39F40A2661F0232B242B54
:1014A000252B21F408950A2609F4A140A6958FEF73
:1014B000811D811D0895EE0FFF1F881F8BBF0790B0
:1014C000F691E02D19940E946B0A332312F48A1BC3
:1014D0009B0B0C947C0AA29FB001B39FC001A39FF9
:1014E000700D811D1124911DB29F700D811D11245D
:1014F000911D08950E946B0AB7FF0895821B930BFC
:1015000008950F931F93CF93DF938230910510F4CA
:1015100082E090E0E091F002F091F10230E020E012
:10152000B0E0A0E0309799F42115310509F44AC0E4
:10153000281B390B24303105D8F58A819B81611530
:10154000710589F1FB0193838283FE0111C0408103
:1015500051810281138148175907E0F04817590754
:1015600099F4109761F012960C93129713961C93AE
:101570003296CF01DF91CF911F910F910895009383
:10158000F0021093F102F4CF2115310551F042170A
:10159000530738F0A901DB019A01BD01DF01F80111
:1015A000C1CFEF01F9CF9093F1028093F002CDCF3C
:1015B000FE01E20FF31F8193919322503109398389
:1015C0002883D7CF2091EE023091EF02232B41F4F4
:1015D00020911202309113023093EF022093EE0219
:1015E00020911002309111022115310541F42DB7DF
:1015F0003EB74091140250911502241B350BE09127
:10160000EE02F091EF02E217F307A0F42E1B3F0B5E
:101610002817390778F0AC014E5F5F4F2417350764
:1016200048F04E0F5F1F5093EF024093EE028193FC
:1016300091939FCFF0E0E0E09CCFCF93DF930097B2
:10164000E9F0FC01329713821282A091F002B0916E
:10165000F102ED0130E020E01097A1F4208131810A
:10166000820F931F2091EE023091EF022817390765
:1016700009F061C0F093EF02E093EE02DF91CF91A9
:101680000895EA01CE17DF07E8F54A815B819E01E4
:1016900041155105B1F7E901FB83EA83499159915D
:1016A000C40FD51FEC17FD0761F48081918102966C
:1016B000840F951FE90199838883828193819B839D
:1016C0008A83F0E0E0E012968D919C911397009749
:1016D000B9F52D913C911197CD010296820F931F80
:1016E0002091EE023091EF022817390739F6309732
:1016F00051F51092F1021092F002B093EF02A09314
:10170000EE02BCCFD383C28340815181840F951FE9
:10171000C817D90761F44E5F5F4F88819981480FE0
:10172000591F518340838A819B8193838283211532
:10173000310509F0B0CFF093F102E093F0029ECFB3
:10174000FD01DC01C0CF13821282D7CFF894FFCF06
:1017500010021002100210021002100210021002F9
:101760000000F202800000000000A70211023E0209
:0E177000F9026F024D02610200000000D20378
:00000001FF
