:100000000C945D000C9449030C9422030C9485001D
:100010000C9485000C9485000C9485000C9485004C
:100020000C9485000C9485000C9485000C9485003C
:100030000C9485000C9485000C9485000C9485002C
:100040000C94D8020C9485000C9496030C947003C5
:100050000C9485000C9485000C9485000C9485000C
:100060000C9485000C9485000000000024002700FB
:100070002A0000000000250028002B0004040404CE
:100080000404040402020202020203030303030342
:10009000010204081020408001020408102001021F
:1000A00004081020000000080002010000030407FB
:1000B0000000000000000000F20511241FBECFEF79
:1000C000D8E0DEBFCDBF11E0A0E0B1E0ECE6F2E1A8
:1000D00002C005900D92A232B107D9F721E0A2E249
:1000E000B1E001C01D92A63EB207E1F710E0CDE5F8
:1000F000D0E004C02197FE010E940908CC35D10749
:10010000C9F70E94C8030C9434090C94000090E0D5
:10011000FC01EC55FF4F2491FC01E057FF4F349157
:10012000FC01E458FF4FE491EE23C9F0222339F09B
:10013000233001F1A8F4213019F1223029F1F0E047
:10014000EE0FFF1FEE58FF4FA591B4918FB7F894B3
:10015000EC91611126C030953E233C938FBF0895EA
:100160002730A9F02830C9F0243049F78091800069
:100170008F7D03C0809180008F7780938000DFCFD8
:1001800084B58F7784BDDBCF84B58F7DFBCF809125
:10019000B0008F778093B000D2CF8091B0008F7D78
:1001A000F9CF3E2BDACF3FB7F8948091410190917F
:1001B0004201A0914301B091440126B5A89B05C01E
:1001C0002F3F19F00196A11DB11D3FBFBA2FA92FD6
:1001D000982F8827BC01CD01620F711D811D911DD3
:1001E00042E0660F771F881F991F4A95D1F708953F
:1001F0000895AF92BF92CF92DF92EF92FF920F934A
:100200001F93CF93DF936C017B018B01040F151FAC
:10021000EB015E01AE18BF08C017D10759F0699114
:10022000D601ED91FC910190F081E02DC601099578
:10023000892B79F7C501DF91CF911F910F91FF9025
:10024000EF90DF90CF90BF90AF900895FC01538D59
:10025000448D252F30E0842F90E0821B930B5417A0
:1002600010F0CF96089501970895FC01918D828D2D
:10027000981761F0A28DAE0FBF2FB11D5D968C91C6
:10028000928D9F5F9F73928F90E008958FEF9FEF05
:100290000895FC01918D828D981731F0828DE80FC1
:1002A000F11D858D90E008958FEF9FEF0895FC017B
:1002B000918D228D892F90E0805C9F4F821B910948
:1002C0008F739927089585E491E00E94570121E0FA
:1002D000892B09F420E0822F089580E090E0892B9B
:1002E00029F00E94630181110C9400000895FC0123
:1002F000A48DA80FB92FB11DA35ABF4F2C91848D87
:1003000090E001968F739927848FA689B7892C93E3
:10031000A089B1898C91837080648C93938D848D36
:10032000981306C00288F389E02D80818F7D808339
:100330000895EF92FF920F931F93CF93DF93EC01F9
:1003400081E0888F9B8D8C8D98131AC0E889F9897C
:10035000808185FF15C09FB7F894EE89FF8960837F
:10036000E889F98980818370806480839FBF81E000
:1003700090E0DF91CF911F910F91FF90EF90089542
:10038000F62E0B8D10E00F5F1F4F0F731127E02E1D
:100390008C8D8E110CC00FB607FCFACFE889F98955
:1003A000808185FFF5CFCE010E947701F1CFEB8DE3
:1003B000EC0FFD2FF11DE35AFF4FF0829FB7F89429
:1003C0000B8FEA89FB8980818062CFCF682F85E41B
:1003D00091E00C949901CF93DF93EC01888D8823F1
:1003E000B9F0AA89BB89E889F9898C9185FD03C098
:1003F000808186FD0DC00FB607FCF7CF8C9185FF7D
:10040000F2CF808185FFEDCFCE010E947701E9CF49
:10041000DF91CF910895CF93DF93EC018C81662318
:1004200091F061E00E94870083EF9CE00197F1F773
:1004300060E08C810E9487008BE193E00197F1F7E7
:10044000DF91CF91089561E00E9487008BE995E0EC
:100450000197F1F760E08C810E94870083E79AE0C2
:10046000EDCF8F929F92AF92BF92CF92DF92FF9289
:100470000F931F93CF93DF938C01D62EF72E61E05D
:10048000FC0184810E94870083E398E10197F1F7E2
:1004900060E0F80184810E9487008BE49AE0019774
:1004A000F1F7CD2DDF2D4E01F4E08F0E911CF12CD4
:1004B000A990FA0C97E0C92ED12CB12CB5010C2CC7
:1004C00002C0759567950A94E2F76170C8010E94B1
:1004D0000B0281E0C81AD10888F78C169D0641F7F7
:1004E00087E0C82ED12CCF2DD0E0BE010C2C02C04D
:1004F000759567950A94E2F76170C8010E940B0236
:10050000F1E0CF1AD10888F760E0C801DF91CF9100
:100510001F910F91FF90DF90CF90BF90AF909F9071
:100520008F900C940B02EF92FF920F931F93CF9337
:10053000DF93CDB7DEB72B970FB6F894DEBF0FBEB3
:10054000CDBF7C010D831E8349875A878D819E8193
:100550009A83898389859A8534E0880F991F3A9513
:10056000E1F7282B2B83643608F183E68C83BE01E8
:100570006F5F7F4FC7010E943102BE016F5F7F4FE7
:10058000C7010E943102BE016F5F7F4FC7010E9409
:1005900031022B960FB6F894DEBF0FBECDBFDF91B0
:1005A000CF911F910F91FF90EF9008956C83DFCF53
:1005B0001F920F920FB60F9211242F933F938F9398
:1005C0009F93AF93BF9380913D0190913E01A09185
:1005D0003F01B091400130913C0123E0230F2D37C2
:1005E00058F50196A11DB11D20933C0180933D015A
:1005F00090933E01A0933F01B0934001809141014F
:1006000090914201A0914301B09144010196A11D36
:10061000B11D8093410190934201A0934301B09397
:100620004401BF91AF919F918F913F912F910F9076
:100630000FBE0F901F90189526E8230F0296A11D5C
:10064000B11DD2CF1F920F920FB60F9211242F938C
:100650003F934F935F936F937F938F939F93AF934A
:10066000BF93EF93FF93E0910201F091030109958D
:10067000FF91EF91BF91AF919F918F917F916F917A
:100680005F914F913F912F910F900FBE0F901F9050
:1006900018951F920F920FB60F9211242F933F932C
:1006A0004F935F936F937F938F939F93AF93BF937A
:1006B000EF93FF93E0910001F09101010995FF9103
:1006C000EF91BF91AF919F918F917F916F915F91CA
:1006D0004F913F912F910F900FBE0F901F90189543
:1006E0001F920F920FB60F9211242F933F934F93A7
:1006F0005F936F937F938F939F93AF93BF93EF938A
:10070000FF9385E491E00E947701FF91EF91BF9103
:10071000AF919F918F917F916F915F914F913F9199
:100720002F910F900FBE0F901F9018951F920F9250
:100730000FB60F9211242F938F939F93EF93FF93F4
:10074000E0915501F09156018081E0915B01F091BB
:100750005C0182FD1BC0908180915E018F5F8F7371
:1007600020915F01821741F0E0915E01F0E0EB5BC8
:10077000FE4F958F80935E01FF91EF919F918F9136
:100780002F910F900FBE0F901F9018958081F4CF7E
:10079000CF93DF9300D000D000D01F92CDB7DEB74B
:1007A000789484B5826084BD84B5816084BD85B54C
:1007B000826085BD85B5816085BD80916E00816058
:1007C00080936E00109281008091810082608093FE
:1007D0008100809181008160809381008091800000
:1007E0008160809380008091B10084608093B1002B
:1007F0008091B00081608093B00080917A00846025
:1008000080937A0080917A00826080937A00809150
:100810007A00816080937A0080917A00806880936A
:100820007A001092C100E0915501F091560112E05A
:100830001083E0915101F09152011082E091530137
:10084000F091540180E1808310925D01E0915901A3
:10085000F0915A0186E08083E0915701F0915801B0
:10086000808180618083E0915701F09158018081FF
:1008700088608083E0915701F09158018081806801
:100880008083E0915701F091580180818F7D8083B2
:1008900085E090E00E940F087C0180E291E0F70182
:1008A0009183808314838CED95E793838283E2E9BF
:1008B000F0E02491EEE7F0E08491882399F090E055
:1008C000880F991FFC01E859FF4FA591B491FC01D5
:1008D000EE58FF4F859194918FB7F894EC91E22BED
:1008E000EC938FBF60E0F70184810E948700F09253
:1008F0002801E092270132E0E32EF12CCC24C394AE
:10090000D12C9CE0292E24E6322E85E491E00E9431
:100910005701892BD1F10E94D3004B015C0183E088
:10092000482E512C612C712C0E94D3006819790932
:100930008A099B09683E734081059105A8F3F1E09F
:100940004F1A51086108710828EE820E23E0921EAA
:10095000A11CB11C411451046104710429F785E400
:1009600091E00E945701181619067CF685E491E083
:100970000E943501E0913B0191E09E0F90933B0175
:10098000F0E0E15DFE4F8083C0CF80913B01E82F16
:10099000F0E0E15DFE4F10828823B1F0EFE2F1E07C
:1009A00001900020E9F781E090E0E453F14009F084
:1009B00078C010912F01812F8F7D853409F06BC095
:1009C00010922E0110922D01EFE2F1E0222D1192F2
:1009D0002A95E9F710923B0180912E01882309F4B2
:1009E0004DC080912D01839DC0011124092E000C62
:1009F000AA0BBB0B4091290150912A0160912B0158
:100A000070912C01840F951FA61FB71F2FB7F89464
:100A100040913D0150913E0160913F017091400134
:100A20002FBF481759076A077B0708F0D8C0A09165
:100A30002701B09128016091260180912401309115
:100A40002501909122015091230112962C91129729
:100A500013964C911397022F29834A83492F9D8324
:100A60005E83282F8B833C836F83ED91FC911197DC
:100A70000190F081E02D1A81CD01099580E090E090
:100A8000892B09F442CF0E946301882309F439CFEE
:100A90000E94000036CF80912E01882329F082E049
:100AA00090E00E94E60190CF809131018093260171
:100AB000843618F085E090E0F4CF20913201022EC8
:100AC000000C330B8EE1A82F880FBB0B0E94EB07A5
:100AD0000E9436072DEC3CEC4CEC51E40E948C0655
:100AE0002B013C0120E030E0A9010E94C20720E078
:100AF00030E040E05FE387FD40C0C301B2010E94E7
:100B000020060E94FE0660932D0180913001823004
:100B1000C9F18330E1F1813009F03EC01092230128
:100B200010922201163509F446C0CCF5103509F4AF
:100B30004CC0133509F444C01234B1F583E090E0A1
:100B40009093250180932401E1E0E0932E012FB7DB
:100B5000F89480913D0190913E01A0913F01B091A8
:100B600040012FBF8093290190932A01A0932B016C
:100B7000B0932C0190E080E094CFC301B2010E94B9
:100B80001F06BFCFD0922301C0922201CBCFF0929B
:100B90002301E0922201C6CF84E090E082CF10379B
:100BA000A1F02CF4123651F283E090E07ACF1337A3
:100BB00039F01637C9F7F0922501E0922401C4CF2D
:100BC000D0922501C0922401BFCF83E090E09093A2
:100BD00025018093240194E190932D01B5CF1092CB
:100BE0002E014CCFE5E4F1E01382128288EE93E00F
:100BF000A0E0B0E084839583A683B7838EE091E084
:100C00009183808385EC90E09587848784EC90E0E5
:100C10009787868780EC90E0918B808B81EC90E0C9
:100C2000938B828B82EC90E0958B848B86EC90E0AA
:100C3000978B868B118E128E138E148E08955058BA
:100C4000BB27AA270E9437060C9488070E947A07C0
:100C500038F00E94810720F039F49F3F19F426F400
:100C60000C9477070EF4E095E7FB0C947107E92FDD
:100C70000E94990758F3BA1762077307840795070C
:100C800020F079F4A6F50C94BB070EF4E0950B2E3A
:100C9000BA2FA02D0B01B90190010C01CA01A001CE
:100CA0001124FF27591B99F0593F50F4503E68F129
:100CB0001A16F040A22F232F342F4427585FF3CF6A
:100CC000469537952795A795F0405395C9F77EF43B
:100CD0001F16BA0B620B730B840BBAF09150A1F084
:100CE000FF0FBB1F661F771F881FC2F70EC0BA0F0A
:100CF000621F731F841F48F4879577956795B79592
:100D0000F7959E3F08F0B0CF9395880F08F099278C
:100D1000EE0F9795879508950E94A0060C9488077A
:100D20000E94810758F00E947A0740F029F45F3F43
:100D300029F00C94710751110C94BC070C9477079F
:100D40000E94990768F39923B1F3552391F3951BFA
:100D5000550BBB27AA2762177307840738F09F5FDC
:100D60005F4F220F331F441FAA1FA9F335D00E2E49
:100D70003AF0E0E832D091505040E695001CCAF7B6
:100D80002BD0FE2F29D0660F771F881FBB1F261779
:100D900037074807AB07B0E809F0BB0B802DBF0150
:100DA000FF2793585F4F3AF09E3F510578F00C941F
:100DB00071070C94BC075F3FE4F3983ED4F386952B
:100DC00077956795B795F7959F5FC9F7880F911D40
:100DD0009695879597F90895E1E0660F771F881F2C
:100DE000BB1F621773078407BA0720F0621B730BDF
:100DF000840BBA0BEE1F88F7E09508950E94050753
:100E00006894B1110C94BC0708950E94A10788F062
:100E10009F5798F0B92F9927B751B0F0E1F0660FBE
:100E2000771F881F991F1AF0BA95C9F714C0B130FF
:100E300091F00E94BB07B1E008950C94BB07672FA7
:100E4000782F8827B85F39F0B93FCCF3869577952E
:100E50006795B395D9F73EF4909580957095619517
:100E60007F4F8F4F9F4F0895E89409C097FB3EF442
:100E700090958095709561957F4F8F4F9F4F9923E7
:100E8000A9F0F92F96E9BB279395F6958795779565
:100E90006795B795F111F8CFFAF4BB0F11F460FF25
:100EA0001BC06F5F7F4F8F4F9F4F16C0882311F07D
:100EB00096E911C0772321F09EE8872F762F05C091
:100EC000662371F096E8862F70E060E02AF09A952C
:100ED000660F771F881FDAF7880F9695879597F921
:100EE000089597F99F6780E870E060E008959FEFAC
:100EF00080EC089500240A941616170618060906B1
:100F0000089500240A94121613061406050608957F
:100F1000092E0394000C11F4882352F0BB0F40F407
:100F2000BF2B11F460FF04C06F5F7F4F8F4F9F4F47
:100F3000089557FD9058440F551F59F05F3F71F0C9
:100F40004795880F97FB991F61F09F3F79F0879530
:100F50000895121613061406551FF2CF4695F1DFB9
:100F600008C0161617061806991FF1CF8695710549
:100F7000610508940895E894BB2766277727CB017D
:100F800097F908950E94C70708F48FEF0895990F05
:100F90000008550FAA0BE0E8FEEF16161706E80743
:100FA000F907C0F012161306E407F50798F0621B64
:100FB000730B840B950B39F40A2661F0232B242B39
:100FC000252B21F408950A2609F4A140A6958FEF58
:100FD000811D811D08950E94F307332312F48A1B9B
:100FE0009B0B0C940408A29FB001B39FC001A39F68
:100FF000700D811D1124911DB29F700D811D112452
:10100000911D08950E94F307B7FF0895821B930B6B
:101010000895EE0FFF1F0590F491E02D09940F93B2
:101020001F93CF93DF938230910510F482E090E01C
:10103000E091E401F091E50130E020E0B0E0A0E0D3
:10104000309799F42115310509F44AC0281B390B52
:1010500024303105D8F58A819B816115710589F1AC
:10106000FB0193838283FE0111C040815181028183
:10107000138148175907E0F04817590799F410975A
:1010800061F012960C93129713961C933296CF012F
:10109000DF91CF911F910F9108950093E401109378
:1010A000E501F4CF2115310551F04217530738F00F
:1010B000A901DB019A01BD01DF01F801C1CFEF01F8
:1010C000F9CF9093E5018093E401CDCFFE01E20FCB
:1010D000F31F819391932250310939832883D7CF0D
:1010E0002091E2013091E301232B41F4209106018C
:1010F000309107013093E3012093E2012091040134
:10110000309105012115310541F42DB73EB74091CD
:10111000080150910901241B350BE091E201F09187
:10112000E301E217F307A0F42E1B3F0B2817390742
:1011300078F0AC014E5F5F4F2417350748F04E0F33
:101140005F1F5093E3014093E201819391939FCFFE
:10115000F0E0E0E09CCFCF93DF930097E9F0FC0153
:10116000329713821282A091E401B091E501ED0162
:1011700030E020E01097A1F420813181820F931F8D
:101180002091E2013091E3012817390709F061C08D
:10119000F093E301E093E201DF91CF910895EA013A
:1011A000CE17DF07E8F54A815B819E0141155105A5
:1011B000B1F7E901FB83EA8349915991C40FD51F27
:1011C000EC17FD0761F4808191810296840F951FD1
:1011D000E90199838883828193819B838A83F0E0EC
:1011E000E0E012968D919C9113970097B9F52D919F
:1011F0003C911197CD010296820F931F2091E2013D
:101200003091E3012817390739F6309751F51092DC
:10121000E5011092E401B093E301A093E201BCCF99
:10122000D383C28340815181840F951FC817D9078A
:1012300061F44E5F5F4F88819981480F591F518338
:1012400040838A819B81938382832115310509F034
:10125000B0CFF093E501E093E4019ECFFD01DC0106
:0C126000C0CF13821282D7CFF894FFCFCA
:10126C00F800F8000000E601800000000000990181
:10127C00F9002601EB01570135014901000000007E
:02128C009302CB
:00000001FF
