:100000000C94CC000C9459050C9432050C940B05FF
:100010000C94E4040C94F4000C94F4000C94BD04CF
:100020000C94F4000C94F4000C9480050C94EF05EF
:100030000C94F4000C94F4000C94F4000C94F40070
:100040000C94F4000C94F4000C94F4000C94F40060
:100050000C94F4000C94F4000C94F4000C947304CD
:100060000C94F4000C94F4000C94F4000C94F40040
:100070000C94F4000C94F4000C94F4000C94F40030
:100080000C94F4000C94F4000C94F4000C94F40020
:100090000C94F4000C94F4000C94F4000C94F40010
:1000A0000C94F4000C94F4000C94F400080B00027F
:1000B0000202000009040000010202000005240001
:1000C0001001052401010104240206052406000193
:1000D0000705810310004009040100020A00000026
:1000E00007050202400000070583024000000403E8
:1000F000090412010002EF02014041234180000186
:100100000102030141726475696E6F204C4C43001B
:1001100041726475696E6F2059756E0000000000B1
:10012000240027002A002D003000000000002500D8
:1001300028002B002E0031000404040404030405ED
:100140000202020204030202020206060606060674
:10015000040402020204040408020110408040105A
:1001600020408040800802040180402010020110DD
:100170008010204040200000000200090F00000312
:100180000401000C0000000000000000000000005E
:100190000000000000007B0A11241FBECFEFDAE050
:1001A000DEBFCDBF11E0A0E0B1E0EEE4FBE102C0B4
:1001B00005900D92AC33B107D9F721E0ACE3B1E083
:1001C00001C01D92A93CB207E1F710E0CCECD0E0F1
:1001D00004C02197FE010E945C0CCB3CD107C9F7FB
:1001E0000E9454080C94A50D0C940000FC01809111
:1001F000C401882311F13FB7F89482E08093E900AD
:100200002091F200822F90E01816190614F481E074
:1002100090E0882339F0289844E64093C301409148
:10022000F1004083222339F02091F200211103C014
:100230002BE62093E8003FBF08958FEF9FEF0895CE
:100240002FB7F89483E08093E9009091E800892F1C
:10025000807295FF04C09091F20080E4891B2FBF4B
:1002600008958091BB0181110DC082E08093B70198
:1002700084E08093B8011092BA011092B90181E034
:100280008093BB0187EB91E00895282F30E0F901BE
:10029000EA58FE4F9491F901E95AFE4F8491285C87
:1002A0003E4FF9012491222309F430C09923E9F04B
:1002B00091509F30D0F4E92FF0E0EF59FE4F0C94AD
:1002C0005C0C8F019301700187018B017501750131
:1002D000750196019C01A001A401AA017501AE015E
:1002E000909180009F7790938000E22FF0E0EE0FD6
:1002F000FF1FE65DFE4FA591B4919FB7F894EC9176
:10030000611132C080958E238C939FBF0895909188
:1003100080009F7DE8CF90918000977FE4CF94B5D7
:100320009F7794BDE2CF94B59F7DFBCF90919000D5
:100330009F7790939000D9CF909190009F7DF9CFB7
:1003400090919000977FF5CF9091C0009F77909308
:10035000C000CBCF9091C0009F7DF9CF9091C2009B
:10036000977F9093C200C1CF8E2BCECF3FB7F8942A
:100370008091B3019091B401A091B501B091B60103
:1003800026B5A89B05C02F3F19F00196A11DB11DF0
:100390003FBFBA2FA92F982F8827BC01CD01620F2C
:1003A000711D811D911D42E0660F771F881F991FE7
:1003B0004A95D1F708958F929F92AF92BF92CF92B4
:1003C000DF92EF92FF924B015C010E94B6016B013C
:1003D0007C010E94B6016C197D098E099F09683E57
:1003E000734081059105A8F321E0821A9108A108C4
:1003F000B10888EEC80E83E0D81EE11CF11C811400
:100400009104A104B10429F7FF90EF90DF90CF9001
:10041000BF90AF909F908F900895089540913E01B6
:1004200050913F0120913C0130913D01421753070B
:10043000B4F49091E8009570E1F39091E80092FD9A
:1004400019C08093F10080913E0190913F01019687
:100450008F739927892B19F48EEF8093E800809190
:100460003E0190913F01019690933F0180933E01A0
:1004700081E0089580E00895DF92EF92FF920F935C
:100480001F93CF93DF93D82E8A01EB017B01E40EFB
:10049000F51ECE15DF0559F0D7FE12C0FE0184917E
:1004A0000E940E0221968111F4CF0FEF1FEFC801B9
:1004B000DF91CF911F910F91FF90EF90DF90089502
:1004C0008881EECF0F931F93CF93DF931F92CDB709
:1004D000DEB782E0898342E450E06CEA70E080E8B5
:1004E0000E943C020E943101DC0112960D911C9188
:1004F0000115110589F0D801ED91FC910280F3817D
:10050000E02DBE016F5F7F4FC801099597FD04C0C4
:10051000F80100851185ECCF89810F90DF91CF9193
:100520001F910F910895615030F02091F100FC016E
:1005300020830196F8CF289884E68093C30108951C
:100540008F929F92AF92BF92CF92DF92EF92FF92E3
:100550000F931F93CF93DF936C017B018A018091EE
:100560000B01882309F45CC08091C401882309F43D
:1005700057C08091420180FF05C08091E0008260F9
:100580008093E000E801B12C8AEFA82E93E0892E39
:100590002AE3922E209711F4BB20D9F10E9420016A
:1005A00081110AC0AA94AA20D9F161E070E080E02C
:1005B00090E00E94DB01EECF8C171D0611F00CF0CD
:1005C0008C2F9FB7F8948092E9002091E80025FDD8
:1005D00002C09FBFDFCF282F30E0C21BD30BF70133
:1005E000815020F041914093F100FACFE20EF31ECA
:1005F000BB2021F09092E800B12CEBCF8091E80075
:1006000085FDE7CF9092E800BB24B394209709F3CF
:10061000F3CF5D9884E680934101101611063CF0FB
:1006200081E090E0F6019383828310E000E0C8014E
:10063000DF91CF911F910F91FF90EF90DF90CF90BE
:10064000BF90AF909F908F900895CF93DF931F92AC
:10065000CDB7DEB76983DC01ED91FC910280F381B7
:10066000E02D41E050E0BE016F5F7F4F09950F9094
:10067000DF91CF91089583E08093E9008091F200AB
:10068000882319F08AE38093E80008950E942001EE
:1006900090E00895CF93DF931F92CDB7DEB7FC01B2
:1006A0008485958597FD08C02FEF3FEF3587248718
:1006B0000F90DF91CF910895CE0101960E94F60030
:1006C000019719F4898190E0F3CF8FEF9FEFF0CF7E
:1006D0000F931F93CF93DF931F92CDB7DEB78C019B
:1006E000FC018485958597FF0BC0CE0101960E9481
:1006F000F600019771F4898190E0F801958784876D
:10070000F801848595850F90DF91CF911F910F910E
:1007100008958FEF9FEFF1CFFC018485958597FDBC
:100720000BC09FB7F89482E08093E9008091F200BB
:100730009FBF90E0019608959FB7F89482E0809360
:10074000E9008091F2009FBF90E00895CF93DF937E
:10075000EC018C81662391F061E00E94450183EFFA
:100760009CE00197F1F760E08C810E9445018BE1EC
:1007700093E00197F1F7DF91CF91089561E00E9436
:1007800045018BE995E00197F1F760E08C810E94CB
:10079000450183E79AE0EDCF8F929F92AF92BF928F
:1007A000CF92DF92FF920F931F93CF93DF938C0131
:1007B000D62EF72E61E0FC0184810E94450183E37F
:1007C00098E10197F1F760E0F80184810E9445010A
:1007D0008BE49AE00197F1F7CD2DDF2D4E01F4E087
:1007E0008F0E911CF12CA990FA0C97E0C92ED12CF8
:1007F000B12CB5010C2C02C0759567950A94E2F7EF
:100800006170C8010E94A60381E0C81AD10888F768
:100810008C169D0641F787E0C82ED12CCF2DD0E055
:10082000BE010C2C02C0759567950A94E2F76170C1
:10083000C8010E94A603F1E0CF1AD10888F760E052
:10084000C801DF91CF911F910F91FF90DF90CF9062
:10085000BF90AF909F908F900C94A603EF92FF9261
:100860000F931F93CF93DF93CDB7DEB72B970FB6C0
:10087000F894DEBF0FBECDBF7C010D831E83498778
:100880005A878D819E819A83898389859A8534E0F0
:10089000880F991F3A95E1F7282B2B83643608F1CE
:1008A00083E68C83BE016F5F7F4FC7010E94CC033C
:1008B000BE016F5F7F4FC7010E94CC03BE016F5F17
:1008C0007F4FC7010E94CC032B960FB6F894DEBF72
:1008D0000FBECDBFDF91CF911F910F91FF90EF9091
:1008E00008956C83DFCF1F920F920FB60F921124E1
:1008F0002F933F938F939F93AF93BF938091AF01BB
:100900009091B001A091B101B091B2013091AE01CE
:1009100023E0230F2D3758F50196A11DB11D20931B
:10092000AE018093AF019093B001A093B101B09359
:10093000B2018091B3019091B401A091B501B09141
:10094000B6010196A11DB11D8093B3019093B4012E
:10095000A093B501B093B601BF91AF919F918F91D4
:100960003F912F910F900FBE0F901F90189526E882
:10097000230F0296A11DB11DD2CF1F920F920FB669
:100980000F9211242F933F934F935F936F937F9315
:100990008F939F93AF93BF93EF93FF93E0911401D5
:1009A000F09115010995FF91EF91BF91AF919F9142
:1009B0008F917F916F915F914F913F912F910F9008
:1009C0000FBE0F901F9018951F920F920FB60F92A7
:1009D00011242F933F934F935F936F937F938F9344
:1009E0009F93AF93BF93EF93FF93E0911201F09128
:1009F00013010995FF91EF91BF91AF919F918F9155
:100A00007F916F915F914F913F912F910F900FBE0A
:100A10000F901F9018951F920F920FB60F921124EE
:100A20002F933F934F935F936F937F938F939F93F6
:100A3000AF93BF93EF93FF93E0911001F0911101F9
:100A40000995FF91EF91BF91AF919F918F917F9108
:100A50006F915F914F913F912F910F900FBE0F902B
:100A60001F9018951F920F920FB60F9211242F937B
:100A70003F934F935F936F937F938F939F93AF9326
:100A8000BF93EF93FF93E0910E01F0910F01099551
:100A9000FF91EF91BF91AF919F918F917F916F9156
:100AA0005F914F913F912F910F900FBE0F901F902C
:100AB00018951F920F920FB60F9211242F933F9308
:100AC0004F935F936F937F938F939F93AF93BF9356
:100AD000EF93FF93E0910C01F0910D010995FF91C7
:100AE000EF91BF91AF919F918F917F916F915F91A6
:100AF0004F913F912F910F900FBE0F901F9018951F
:100B00001F920F920FB60F9211248F939F93809193
:100B1000E1009091E100937F9093E10083FF0FC08B
:100B20001092E90091E09093EB001092EC0092E3B8
:100B30009093ED001092C40198E09093F00082FF32
:100B400022C093E09093E9009091F200992319F06C
:100B50009AE39093E80090914101992341F090919C
:100B60004101915090934101911101C05D9A909182
:100B7000C301992341F09091C30191509093C30117
:100B8000911101C0289A84FF18C08091E2008E7EE6
:100B900081608093E2008091E1008F7E8093E1008C
:100BA000809142018E7E8061809342019F918F915E
:100BB0000F900FBE0F901F90189580FFF7CF809178
:100BC000E2008E7E80618093E2008091E1008E7E63
:100BD0008093E100809142018E7E8160E5CF1F927B
:100BE0000F920FB60F921124CF92DF92EF92FF92E5
:100BF0000F931F932F933F934F935F936F937F9325
:100C00008F939F93AF93BF93EF93FF93CF93DF9314
:100C1000CDB7DEB76C97DEBFCDBF1092E9008091F3
:100C2000E80083FF25C068E0CE0145960E9493024C
:100C300082EF8093E8008D8987FF39C09091E800AA
:100C400090FFFCCF982F907609F034C19E894F8990
:100C5000588D2F89F88C911131C0803861F58091C1
:100C600043018093F1001092F1008EEF8093E80031
:100C70006C960FB6F894DEBF0FBECDBFDF91CF915B
:100C8000FF91EF91BF91AF919F918F917F916F9164
:100C90005F914F913F912F911F910F91FF90EF9096
:100CA000DF90CF900F900FBE0F901F9018959EEF82
:100CB0009093E800C7CF1092F100D5CF913059F44E
:100CC0008111D3CF4130510581F6809143018D7F51
:100CD00080934301CACF933049F48111C6CF41308C
:100CE000510519F6809143018260F2CF953041F4AD
:100CF0008091E80080FFFCCF20682093E300B5CF0F
:100D0000963009F0A9C00B8D1C8D22E01092E900ED
:100D100010923F0110923E01F2122EC010923D013E
:100D200010923C010E9462021F8299E09983FA822C
:100D300091E09E8390EA98879AEF998720913E01EF
:100D400030913F01275F3F4F3C832B838D8310926F
:100D5000E90010923F0110923E0110933D01009373
:100D60003C0149E050E0BE016F5F7F4F80E00E9490
:100D70003C020E94620279CF10933D0100933C0136
:100D80000E943101DC0112960D911C910115110593
:100D900009F451C1D801ED91FC910480F581E02D59
:100DA000BE016B5E7F4FC8010995009709F03EC1F7
:100DB000F80100851185EACFF3E0FF120EC08F899C
:100DC000882309F440C0823061F440E86BE080E1A0
:100DD00091E00E942108811148CF81E28093EB00CD
:100DE00047CF813029F440E86BE084E091E0F1CF17
:100DF000833099F70E943101DC011296ED90FC904E
:100E00008E010F5F1F4F6801E114F10479F0D701E3
:100E1000ED91FC910680F781E02DB801C70109959D
:100E2000080F111DF701E084F184EECFD8011C9268
:100E3000F60101900020E9F73197BF016C197D0997
:100E400040E0C601C6CF6EEE70E0FB01449150E079
:100E500080E80E943C0209CF973009F4BECF983059
:100E600021F481E08093F10000CF993009F0FDCEAC
:100E7000837009F0B2CFEFE2F1E081E031E096E378
:100E80002191222371F08093E9003093EB00DF0180
:100E900011972C912093EC009093ED008F5F873099
:100EA00079F78EE78093EA001092EA008F898093A9
:100EB000C401DBCE8B8D9C8D1092E90010923F0116
:100EC00010923E0190933D0180933C01898D8111E8
:100ED00092C08E899D89913A49F4813209F07DCF83
:100EE00047E050E064E071E080E0B3CF913209F078
:100EF00074CF833269F48F89988DB0E0A0E080933D
:100F0000000190930101A0930201B0930301ADCEC3
:100F1000803269F48091E80082FFFCCF67E084E0D2
:100F200091E00E9493028BEF8093E8009ECE823284
:100F300009F09BCE8F8980930B01EEEFFFE785913F
:100F400094918B3F9C4D51F1E0E0F8E080910401D9
:100F500090910501A0910601B0910701803B94405A
:100F6000A105B105F1F480910B0180FD1AC0EE3F9F
:100F70008AE0F80789F587E797E791838083809176
:100F800060008093400188E19BE00FB6F894A8953B
:100F9000809360000FBE9093600067CEEEEFFAE0A2
:100FA000D5CF808191818737974709F05ECEA8958C
:100FB00080916000886180936000809140018093FF
:100FC0006000EE3F2AE0F20789F08091FE0A9091DE
:100FD000FF0A9183808349CE80819181873798076A
:100FE00051F29093FF0A8093FE0AC5CF1092FF0A38
:100FF0001092FE0A3ACE0E943101DC0112960D9148
:101000001C910115110509F4E8CED801ED91FC9170
:101010000190F081E02DBE016B5E7F4FC801099504
:10102000811123CEF80100851185EBCF1816190622
:101030000CF41BCED2CEF1E0FF12BECE62EF70E018
:1010400004CFEF92FF920F931F93CF93DF93F82E6D
:10105000192FE62E042F81E0860F880F0E940E02C2
:1010600083E00E940E02CF2DD12FEC0EFD2EF11C3D
:10107000CE15DF05B9F007FF13C0FE0184910E9471
:101080000E02182F80E00E940E028123219681110A
:10109000EFCFDF91CF911F910F91FF90EF900895C7
:1010A0008881EDCF81E0F5CFCF93DF9300D000D0E2
:1010B00000D01F92CDB7DEB7789484B5826084BD2E
:1010C00084B5816084BD85B5826085BD85B581604C
:1010D00085BD80916E00816080936E0010928100CA
:1010E0008091810082608093810080918100816085
:1010F0008093810080918000816080938000809146
:101100009100826080939100809191008160809332
:101110009100809190008160809390008091C10047
:1011200084608093C1008091C10082608093C1007F
:101130008091C10081608093C1008091C300816073
:101140008093C3008091C00082608093C000809132
:10115000C20081608093C20080917A008460809395
:101160007A0080917A00826080937A0080917A0080
:10117000816080937A0080917A00806880937A0001
:101180001092C40110924301109242018091D70045
:1011900081608093D70080EA8093D80089B5806110
:1011A00089BD89B5826089BD09B400FEFDCF61E0CB
:1011B00070E080E090E00E94DB018091D8008F7C9D
:1011C00080618093D8008091E000807F8093E00070
:1011D0008091E1008E7E8093E1008DE08093E200BB
:1011E000559A209A8FEF9FEF90936B0180936A013D
:1011F00085E090E00E94800C7C0189E391E0F7019A
:101200009183808382E084838CED95E7938382834E
:10121000E9E5F1E02491EAE3F1E08491882399F093
:1012200090E0880F991FFC01E45EFE4FA591B491F8
:10123000FC01E65DFE4F859194918FB7F894EC9197
:10124000E22BEC938FBF60E0F70184810E9445019F
:10125000F0924A01E092490191E5E92E91E0F92EE0
:101260002224239422E0C22ED12C33E0A32EB12CD1
:1012700088248394912C8CE0382E8EE591E00E9496
:101280008C03892BE1F063E070E080E090E00E9445
:10129000DB018EE591E00E948C03181619066CF7AD
:1012A0008EE591E00E944A03E0915D0191E09E0F7E
:1012B00090935D01F0E0EF5AFE4F8083DECF809186
:1012C0005D01E82FF0E0EF5AFE4F10828823A1F075
:1012D000F70101900020E9F761E0E655F14009F0DF
:1012E000ECC010915101812F8F7D853409F066C0CB
:1012F0001092500110924F01F701232D11922A955F
:10130000E9F710925D0180915001882309F44EC0E5
:1013100080914F01E4E68E9FC0011124092E000C3C
:10132000AA0BBB0B40914B0150914C0160914D01B8
:1013300070914E01840F951FA61FB71F2FB7F89409
:101340004091AF015091B0016091B1017091B20133
:101350002FBF481759076A077B0708F0C9C0A0913B
:101360004901B0914A016091480180914601309154
:101370004701909144015091450112962C9112978A
:1013800013964C911397022F29834A83492F9D83EB
:101390005E83282F8B833C836F83ED91FC911197A3
:1013A0000190F081E02D1A81CD01099580E090E057
:1013B000892B09F462CF0E9400005DCF809150011B
:1013C00062E081117AC0809153018093480165E009
:1013D000843608F072C020915401022E000C330BA9
:1013E0008EE1A82F880FBB0B0E94620C0E94A70BF6
:1013F0002DEC3CEC4CEC51E40E94FD0A2B013C012D
:1014000020E030E0A9010E94330C20E030E040E011
:101410005FE387FD3DC0C301B2010E94910A0E94B3
:101420006F0B60934F01809152018230B1F1833094
:10143000C9F164E0813009F040C01092450110927A
:101440004401163509F442C094F5103509F448C03A
:10145000133509F440C0123479F5B0924701A092D7
:101460004601209250012FB7F8948091AF019091DE
:10147000B001A091B101B091B2012FBF80934B0197
:1014800090934C01A0934D01B0934E0160E015C0C4
:10149000C301B2010E94900AC2CF9092450180928E
:1014A0004401CFCFD0924501C0924401CACF10373A
:1014B000B9F044F4123689F263E08EE591E00E94BF
:1014C00025031ACF133739F01637B1F7D0924701F9
:1014D000C0924601C6CF9092470180924601C1CF8B
:1014E000B0924701A092460194E190934F01B9CF89
:1014F000109250015BCFEEE5F1E01382128288EE8C
:1015000093E0A0E0B0E084839583A683B78380E274
:1015100091E0918380838FEF9FEF95878487089573
:101520005058BB27AA270E94A80A0C94F90B0E94C6
:10153000EB0B38F00E94F20B20F039F49F3F19F4C6
:1015400026F40C94E80B0EF4E095E7FB0C94E20B08
:10155000E92F0E940A0C58F3BA1762077307840731
:10156000950720F079F4A6F50C942C0C0EF4E09578
:101570000B2EBA2FA02D0B01B90190010C01CA014D
:10158000A0011124FF27591B99F0593F50F4503EF8
:1015900068F11A16F040A22F232F342F4427585FEA
:1015A000F3CF469537952795A795F0405395C9F702
:1015B0007EF41F16BA0B620B730B840BBAF09150BA
:1015C000A1F0FF0FBB1F661F771F881FC2F70EC059
:1015D000BA0F621F731F841F48F48795779567952C
:1015E000B795F7959E3F08F0B0CF9395880F08F018
:1015F0009927EE0F9795879508950E94110B0C94EB
:10160000F90B0E94F20B58F00E94EB0B40F029F40A
:101610005F3F29F00C94E20B51110C942D0C0C94AB
:10162000E80B0E940A0C68F39923B1F3552391F358
:10163000951B550BBB27AA2762177307840738F041
:101640009F5F5F4F220F331F441FAA1FA9F335D09E
:101650000E2E3AF0E0E832D091505040E695001C52
:10166000CAF72BD0FE2F29D0660F771F881FBB1F0C
:10167000261737074807AB07B0E809F0BB0B802DEA
:10168000BF01FF2793585F4F3AF09E3F510578F016
:101690000C94E20B0C942D0C5F3FE4F3983ED4F3D2
:1016A000869577956795B795F7959F5FC9F7880FEA
:1016B000911D9695879597F90895E1E0660F771F3C
:1016C000881FBB1F621773078407BA0720F0621BCD
:1016D000730B840BBA0BEE1F88F7E09508950E94F8
:1016E000760B6894B1110C942D0C08950E94120C85
:1016F00088F09F5798F0B92F9927B751B0F0E1F0D3
:10170000660F771F881F991F1AF0BA95C9F714C082
:10171000B13091F00E942C0CB1E008950C942C0C87
:10172000672F782F8827B85F39F0B93FCCF38695BB
:1017300077956795B395D9F73EF490958095709518
:1017400061957F4F8F4F9F4F0895E89409C097FB95
:101750003EF490958095709561957F4F8F4F9F4F88
:101760009923A9F0F92F96E9BB279395F6958795CC
:1017700077956795B795F111F8CFFAF4BB0F11F48F
:1017800060FF1BC06F5F7F4F8F4F9F4F16C0882336
:1017900011F096E911C0772321F09EE8872F762F6C
:1017A00005C0662371F096E8862F70E060E02AF0AD
:1017B0009A95660F771F881FDAF7880F9695879599
:1017C00097F9089597F99F6780E870E060E00895C1
:1017D0009FEF80EC089500240A9416161706180649
:1017E0000906089500240A94121613061406050625
:1017F0000895092E0394000C11F4882352F0BB0FB6
:1018000040F4BF2B11F460FF04C06F5F7F4F8F4F18
:101810009F4F089557FD9058440F551F59F05F3F53
:1018200071F04795880F97FB991F61F09F3F79F002
:1018300087950895121613061406551FF2CF469584
:10184000F1DF08C0161617061806991FF1CF869506
:101850007105610508940895E894BB2766277727EA
:10186000CB0197F908950E94380C08F48FEF089582
:10187000990F0008550FAA0BE0E8FEEF16161706A1
:10188000E807F907C0F012161306E407F50798F009
:10189000621B730B840B950B39F40A2661F0232B22
:1018A000242B252B21F408950A2609F4A140A6959E
:1018B0008FEF811D811D0895EE0FFF1F0590F4919C
:1018C000E02D09940E946A0C332312F48A1B9B0BAF
:1018D0000C947B0CA29FB001B39FC001A39F700D1D
:1018E000811D1124911DB29F700D811D1124911D28
:1018F00008950E946A0CB7FF0895821B930B089508
:101900000F931F93CF93DF938230910510F482E001
:1019100090E0E091C701F091C80130E020E0B0E034
:10192000A0E0309799F42115310509F44AC0281B2D
:10193000390B24303105D8F58A819B8161157105F9
:1019400089F1FB0193838283FE0111C040815181A3
:101950000281138148175907E0F04817590799F495
:10196000109761F012960C93129713961C9332966F
:10197000CF01DF91CF911F910F9108950093C7017F
:101980001093C801F4CF2115310551F042175307C8
:1019900038F0A901DB019A01BD01DF01F801C1CFD7
:1019A000EF01F9CF9093C8018093C701CDCFFE011D
:1019B000E20FF31F819391932250310939832883D9
:1019C000D7CF2091C5013091C601232B41F420913E
:1019D0001801309119013093C6012093C50120915F
:1019E0001601309117012115310541F42DB73EB78D
:1019F00040911A0150911B01241B350BE091C50148
:101A0000F091C601E217F307A0F42E1B3F0B281735
:101A1000390778F0AC014E5F5F4F2417350748F067
:101A20004E0F5F1F5093C6014093C5018193919360
:101A30009FCFF0E0E0E09CCFCF93DF930097E9F0F9
:101A4000FC01329713821282A091C701B091C801A4
:101A5000ED0130E020E01097A1F420813181820F68
:101A6000931F2091C5013091C6012817390709F04D
:101A700061C0F093C601E093C501DF91CF91089555
:101A8000EA01CE17DF07E8F54A815B819E01411527
:101A90005105B1F7E901FB83EA8349915991C40FDC
:101AA000D51FEC17FD0761F4808191810296840FA8
:101AB000951FE90199838883828193819B838A831F
:101AC000F0E0E0E012968D919C9113970097B9F5A4
:101AD0002D913C911197CD010296820F931F209179
:101AE000C5013091C6012817390739F6309751F5ED
:101AF0001092C8011092C701B093C601A093C5010E
:101B0000BCCFD383C28340815181840F951FC817F6
:101B1000D90761F44E5F5F4F88819981480F591F43
:101B2000518340838A819B81938382832115310570
:101B300009F0B0CFF093C801E093C7019ECFFD013B
:0E1B4000DC01C0CF13821282D7CFF894FFCF02
:101B4E00FFFFFFFF00E10000000000000D020D028C
:101B5E000D020D020D020000C90180000000000000
:101B6E002503A00246033B038C034A03680300C10E
:0C1B7E008081000000000000002E040028
:00000001FF
